{
  "contractName": "Contacts",
  "abi": [
    {
      "inputs": [],
      "stateMutability": "nonpayable",
      "type": "constructor"
    },
    {
      "inputs": [
        {
          "internalType": "uint256",
          "name": "",
          "type": "uint256"
        }
      ],
      "name": "contacts",
      "outputs": [
        {
          "internalType": "uint256",
          "name": "id",
          "type": "uint256"
        },
        {
          "internalType": "string",
          "name": "name",
          "type": "string"
        },
        {
          "internalType": "string",
          "name": "phone",
          "type": "string"
        }
      ],
      "stateMutability": "view",
      "type": "function"
    },
    {
      "inputs": [],
      "name": "count",
      "outputs": [
        {
          "internalType": "uint256",
          "name": "",
          "type": "uint256"
        }
      ],
      "stateMutability": "view",
      "type": "function"
    },
    {
      "inputs": [
        {
          "internalType": "string",
          "name": "_name",
          "type": "string"
        },
        {
          "internalType": "string",
          "name": "_phone",
          "type": "string"
        }
      ],
      "name": "createContact",
      "outputs": [],
      "stateMutability": "nonpayable",
      "type": "function"
    }
  ],
  "bytecode": "0x6080604052600080553480156200001557600080fd5b50620000926040518060400160405280600c81526020017f5a616661722053616c65656d00000000000000000000000000000000000000008152506040518060400160405280600981526020017f31323331323331323300000000000000000000000000000000000000000000008152506200020c60201b60201c565b6200010e6040518060400160405280600881526020017f4a6f686e20446f650000000000000000000000000000000000000000000000008152506040518060400160405280600981526020017f30303030303030303000000000000000000000000000000000000000000000008152506200020c60201b60201c565b6200018a6040518060400160405280600981526020017f416c692041686d656400000000000000000000000000000000000000000000008152506040518060400160405280600981526020017f30303030303030303000000000000000000000000000000000000000000000008152506200020c60201b60201c565b620002066040518060400160405280600881526020017f576f6e67204c65650000000000000000000000000000000000000000000000008152506040518060400160405280600981526020017f30303030303030303000000000000000000000000000000000000000000000008152506200020c60201b60201c565b62000441565b60008081548092919062000220906200038e565b9190505550604051806060016040528060005481526020018381526020018281525060016000805481526020019081526020016000206000820151816000015560208201518160010190805190602001906200027e929190620002a5565b5060408201518160020190805190602001906200029d929190620002a5565b509050505050565b828054620002b3906200040b565b90600052602060002090601f016020900481019282620002d7576000855562000323565b82601f10620002f257805160ff191683800117855562000323565b8280016001018555821562000323579182015b828111156200032257825182559160200191906001019062000305565b5b50905062000332919062000336565b5090565b5b808211156200035157600081600090555060010162000337565b5090565b7f4e487b7100000000000000000000000000000000000000000000000000000000600052601160045260246000fd5b6000819050919050565b60006200039b8262000384565b91507fffffffffffffffffffffffffffffffffffffffffffffffffffffffffffffffff821415620003d157620003d062000355565b5b600182019050919050565b7f4e487b7100000000000000000000000000000000000000000000000000000000600052602260045260246000fd5b600060028204905060018216806200042457607f821691505b602082108114156200043b576200043a620003dc565b5b50919050565b61076380620004516000396000f3fe608060405234801561001057600080fd5b50600436106100415760003560e01c806306661abd146100465780633dce492014610064578063e0f478cb14610080575b600080fd5b61004e6100b2565b60405161005b9190610341565b60405180910390f35b61007e600480360381019061007991906104b6565b6100b8565b005b61009a6004803603810190610095919061055a565b61014b565b6040516100a99392919061060f565b60405180910390f35b60005481565b6000808154809291906100ca90610683565b919050555060405180606001604052806000548152602001838152602001828152506001600080548152602001908152602001600020600082015181600001556020820151816001019080519060200190610126929190610285565b506040820151816002019080519060200190610143929190610285565b509050505050565b6001602052806000526040600020600091509050806000015490806001018054610174906106fb565b80601f01602080910402602001604051908101604052809291908181526020018280546101a0906106fb565b80156101ed5780601f106101c2576101008083540402835291602001916101ed565b820191906000526020600020905b8154815290600101906020018083116101d057829003601f168201915b505050505090806002018054610202906106fb565b80601f016020809104026020016040519081016040528092919081815260200182805461022e906106fb565b801561027b5780601f106102505761010080835404028352916020019161027b565b820191906000526020600020905b81548152906001019060200180831161025e57829003601f168201915b5050505050905083565b828054610291906106fb565b90600052602060002090601f0160209004810192826102b357600085556102fa565b82601f106102cc57805160ff19168380011785556102fa565b828001600101855582156102fa579182015b828111156102f95782518255916020019190600101906102de565b5b509050610307919061030b565b5090565b5b8082111561032457600081600090555060010161030c565b5090565b6000819050919050565b61033b81610328565b82525050565b60006020820190506103566000830184610332565b92915050565b6000604051905090565b600080fd5b600080fd5b600080fd5b600080fd5b6000601f19601f8301169050919050565b7f4e487b7100000000000000000000000000000000000000000000000000000000600052604160045260246000fd5b6103c38261037a565b810181811067ffffffffffffffff821117156103e2576103e161038b565b5b80604052505050565b60006103f561035c565b905061040182826103ba565b919050565b600067ffffffffffffffff8211156104215761042061038b565b5b61042a8261037a565b9050602081019050919050565b82818337600083830152505050565b600061045961045484610406565b6103eb565b90508281526020810184848401111561047557610474610375565b5b610480848285610437565b509392505050565b600082601f83011261049d5761049c610370565b5b81356104ad848260208601610446565b91505092915050565b600080604083850312156104cd576104cc610366565b5b600083013567ffffffffffffffff8111156104eb576104ea61036b565b5b6104f785828601610488565b925050602083013567ffffffffffffffff8111156105185761051761036b565b5b61052485828601610488565b9150509250929050565b61053781610328565b811461054257600080fd5b50565b6000813590506105548161052e565b92915050565b6000602082840312156105705761056f610366565b5b600061057e84828501610545565b91505092915050565b600081519050919050565b600082825260208201905092915050565b60005b838110156105c15780820151818401526020810190506105a6565b838111156105d0576000848401525b50505050565b60006105e182610587565b6105eb8185610592565b93506105fb8185602086016105a3565b6106048161037a565b840191505092915050565b60006060820190506106246000830186610332565b818103602083015261063681856105d6565b9050818103604083015261064a81846105d6565b9050949350505050565b7f4e487b7100000000000000000000000000000000000000000000000000000000600052601160045260246000fd5b600061068e82610328565b91507fffffffffffffffffffffffffffffffffffffffffffffffffffffffffffffffff8214156106c1576106c0610654565b5b600182019050919050565b7f4e487b7100000000000000000000000000000000000000000000000000000000600052602260045260246000fd5b6000600282049050600182168061071357607f821691505b60208210811415610727576107266106cc565b5b5091905056fea26469706673582212203c772b0a149d59d9ec96bd4f87f70af71e8bb5ce7c9eef8dafefd7382d25ac1064736f6c634300080a0033",
  "immutableReferences": {},
  "source": "pragma solidity ^0.8.10;\n\ncontract Contacts {\n  uint public count = 0; // state variable\n  \n  struct Contact {\n    uint id;\n    string name;\n    string phone;\n  }\n  \n  constructor() public {\n    createContact('Zafar Saleem', '123123123');\n    createContact('John Doe', '000000000');\n    createContact('Ali Ahmed', '000000000');\n    createContact('Wong Lee', '000000000');\n  }\n  \n  mapping(uint => Contact) public contacts;\n  \n  function createContact(string memory _name, string memory _phone) public {\n    count++;\n    contacts[count] = Contact(count, _name, _phone);\n  }\n}\n",
  "sourcePath": "/Users/xafar/Documents/projects/blockchain-node/blockchain-node-api/contracts/Contacts.sol",
  "compiler": {
    "name": "solc",
    "version": "0.8.10+commit.fc410830.Emscripten.clang"
  },
  "schemaVersion": "3.4.4",
  "updatedAt": "2021-12-23T10:32:46.181Z",
  "devdoc": {
    "kind": "dev",
    "methods": {},
    "version": 1
  },
  "userdoc": {
    "kind": "user",
    "methods": {},
    "version": 1
  }
}